{
  "_format": "hh-sol-artifact-1",
  "contractName": "NFTixBooth",
  "sourceName": "contracts/NFTixBooth.sol",
  "abi": [
    {
      "inputs": [],
      "stateMutability": "nonpayable",
      "type": "constructor"
    },
    {
      "anonymous": false,
      "inputs": [
        {
          "indexed": true,
          "internalType": "address",
          "name": "owner",
          "type": "address"
        },
        {
          "indexed": true,
          "internalType": "address",
          "name": "approved",
          "type": "address"
        },
        {
          "indexed": true,
          "internalType": "uint256",
          "name": "tokenId",
          "type": "uint256"
        }
      ],
      "name": "Approval",
      "type": "event"
    },
    {
      "anonymous": false,
      "inputs": [
        {
          "indexed": true,
          "internalType": "address",
          "name": "owner",
          "type": "address"
        },
        {
          "indexed": true,
          "internalType": "address",
          "name": "operator",
          "type": "address"
        },
        {
          "indexed": false,
          "internalType": "bool",
          "name": "approved",
          "type": "bool"
        }
      ],
      "name": "ApprovalForAll",
      "type": "event"
    },
    {
      "anonymous": false,
      "inputs": [
        {
          "indexed": true,
          "internalType": "address",
          "name": "previousOwner",
          "type": "address"
        },
        {
          "indexed": true,
          "internalType": "address",
          "name": "newOwner",
          "type": "address"
        }
      ],
      "name": "OwnershipTransferred",
      "type": "event"
    },
    {
      "anonymous": false,
      "inputs": [
        {
          "indexed": true,
          "internalType": "address",
          "name": "from",
          "type": "address"
        },
        {
          "indexed": true,
          "internalType": "address",
          "name": "to",
          "type": "address"
        },
        {
          "indexed": true,
          "internalType": "uint256",
          "name": "tokenId",
          "type": "uint256"
        }
      ],
      "name": "Transfer",
      "type": "event"
    },
    {
      "inputs": [],
      "name": "AvailableTicketsCount",
      "outputs": [
        {
          "internalType": "uint256",
          "name": "",
          "type": "uint256"
        }
      ],
      "stateMutability": "view",
      "type": "function"
    },
    {
      "inputs": [],
      "name": "TotalTicketsCount",
      "outputs": [
        {
          "internalType": "uint256",
          "name": "",
          "type": "uint256"
        }
      ],
      "stateMutability": "view",
      "type": "function"
    },
    {
      "inputs": [
        {
          "internalType": "address",
          "name": "to",
          "type": "address"
        },
        {
          "internalType": "uint256",
          "name": "tokenId",
          "type": "uint256"
        }
      ],
      "name": "approve",
      "outputs": [],
      "stateMutability": "nonpayable",
      "type": "function"
    },
    {
      "inputs": [],
      "name": "availableTickets",
      "outputs": [
        {
          "internalType": "uint256",
          "name": "",
          "type": "uint256"
        }
      ],
      "stateMutability": "view",
      "type": "function"
    },
    {
      "inputs": [
        {
          "internalType": "address",
          "name": "owner",
          "type": "address"
        }
      ],
      "name": "balanceOf",
      "outputs": [
        {
          "internalType": "uint256",
          "name": "",
          "type": "uint256"
        }
      ],
      "stateMutability": "view",
      "type": "function"
    },
    {
      "inputs": [
        {
          "internalType": "address",
          "name": "addy",
          "type": "address"
        }
      ],
      "name": "checkIn",
      "outputs": [],
      "stateMutability": "nonpayable",
      "type": "function"
    },
    {
      "inputs": [
        {
          "internalType": "address",
          "name": "",
          "type": "address"
        }
      ],
      "name": "checkIns",
      "outputs": [
        {
          "internalType": "bool",
          "name": "",
          "type": "bool"
        }
      ],
      "stateMutability": "view",
      "type": "function"
    },
    {
      "inputs": [],
      "name": "closeSale",
      "outputs": [],
      "stateMutability": "nonpayable",
      "type": "function"
    },
    {
      "inputs": [
        {
          "internalType": "address",
          "name": "addy",
          "type": "address"
        }
      ],
      "name": "confirmOwnership",
      "outputs": [
        {
          "internalType": "bool",
          "name": "",
          "type": "bool"
        }
      ],
      "stateMutability": "view",
      "type": "function"
    },
    {
      "inputs": [
        {
          "internalType": "uint256",
          "name": "tokenId",
          "type": "uint256"
        }
      ],
      "name": "getApproved",
      "outputs": [
        {
          "internalType": "address",
          "name": "",
          "type": "address"
        }
      ],
      "stateMutability": "view",
      "type": "function"
    },
    {
      "inputs": [
        {
          "internalType": "address",
          "name": "",
          "type": "address"
        },
        {
          "internalType": "uint256",
          "name": "",
          "type": "uint256"
        }
      ],
      "name": "holderTokenIDs",
      "outputs": [
        {
          "internalType": "uint256",
          "name": "",
          "type": "uint256"
        }
      ],
      "stateMutability": "view",
      "type": "function"
    },
    {
      "inputs": [
        {
          "internalType": "address",
          "name": "owner",
          "type": "address"
        },
        {
          "internalType": "address",
          "name": "operator",
          "type": "address"
        }
      ],
      "name": "isApprovedForAll",
      "outputs": [
        {
          "internalType": "bool",
          "name": "",
          "type": "bool"
        }
      ],
      "stateMutability": "view",
      "type": "function"
    },
    {
      "inputs": [],
      "name": "mint",
      "outputs": [],
      "stateMutability": "payable",
      "type": "function"
    },
    {
      "inputs": [],
      "name": "mintPrice",
      "outputs": [
        {
          "internalType": "uint256",
          "name": "",
          "type": "uint256"
        }
      ],
      "stateMutability": "view",
      "type": "function"
    },
    {
      "inputs": [],
      "name": "name",
      "outputs": [
        {
          "internalType": "string",
          "name": "",
          "type": "string"
        }
      ],
      "stateMutability": "view",
      "type": "function"
    },
    {
      "inputs": [],
      "name": "openSale",
      "outputs": [],
      "stateMutability": "nonpayable",
      "type": "function"
    },
    {
      "inputs": [],
      "name": "owner",
      "outputs": [
        {
          "internalType": "address",
          "name": "",
          "type": "address"
        }
      ],
      "stateMutability": "view",
      "type": "function"
    },
    {
      "inputs": [
        {
          "internalType": "uint256",
          "name": "tokenId",
          "type": "uint256"
        }
      ],
      "name": "ownerOf",
      "outputs": [
        {
          "internalType": "address",
          "name": "",
          "type": "address"
        }
      ],
      "stateMutability": "view",
      "type": "function"
    },
    {
      "inputs": [],
      "name": "renounceOwnership",
      "outputs": [],
      "stateMutability": "nonpayable",
      "type": "function"
    },
    {
      "inputs": [
        {
          "internalType": "address",
          "name": "from",
          "type": "address"
        },
        {
          "internalType": "address",
          "name": "to",
          "type": "address"
        },
        {
          "internalType": "uint256",
          "name": "tokenId",
          "type": "uint256"
        }
      ],
      "name": "safeTransferFrom",
      "outputs": [],
      "stateMutability": "nonpayable",
      "type": "function"
    },
    {
      "inputs": [
        {
          "internalType": "address",
          "name": "from",
          "type": "address"
        },
        {
          "internalType": "address",
          "name": "to",
          "type": "address"
        },
        {
          "internalType": "uint256",
          "name": "tokenId",
          "type": "uint256"
        },
        {
          "internalType": "bytes",
          "name": "_data",
          "type": "bytes"
        }
      ],
      "name": "safeTransferFrom",
      "outputs": [],
      "stateMutability": "nonpayable",
      "type": "function"
    },
    {
      "inputs": [],
      "name": "saleIsActive",
      "outputs": [
        {
          "internalType": "bool",
          "name": "",
          "type": "bool"
        }
      ],
      "stateMutability": "view",
      "type": "function"
    },
    {
      "inputs": [
        {
          "internalType": "address",
          "name": "operator",
          "type": "address"
        },
        {
          "internalType": "bool",
          "name": "approved",
          "type": "bool"
        }
      ],
      "name": "setApprovalForAll",
      "outputs": [],
      "stateMutability": "nonpayable",
      "type": "function"
    },
    {
      "inputs": [
        {
          "internalType": "bytes4",
          "name": "interfaceId",
          "type": "bytes4"
        }
      ],
      "name": "supportsInterface",
      "outputs": [
        {
          "internalType": "bool",
          "name": "",
          "type": "bool"
        }
      ],
      "stateMutability": "view",
      "type": "function"
    },
    {
      "inputs": [],
      "name": "symbol",
      "outputs": [
        {
          "internalType": "string",
          "name": "",
          "type": "string"
        }
      ],
      "stateMutability": "view",
      "type": "function"
    },
    {
      "inputs": [
        {
          "internalType": "uint256",
          "name": "tokenId",
          "type": "uint256"
        }
      ],
      "name": "tokenURI",
      "outputs": [
        {
          "internalType": "string",
          "name": "",
          "type": "string"
        }
      ],
      "stateMutability": "view",
      "type": "function"
    },
    {
      "inputs": [],
      "name": "totalTickets",
      "outputs": [
        {
          "internalType": "uint256",
          "name": "",
          "type": "uint256"
        }
      ],
      "stateMutability": "view",
      "type": "function"
    },
    {
      "inputs": [
        {
          "internalType": "address",
          "name": "from",
          "type": "address"
        },
        {
          "internalType": "address",
          "name": "to",
          "type": "address"
        },
        {
          "internalType": "uint256",
          "name": "tokenId",
          "type": "uint256"
        }
      ],
      "name": "transferFrom",
      "outputs": [],
      "stateMutability": "nonpayable",
      "type": "function"
    },
    {
      "inputs": [
        {
          "internalType": "address",
          "name": "newOwner",
          "type": "address"
        }
      ],
      "name": "transferOwnership",
      "outputs": [],
      "stateMutability": "nonpayable",
      "type": "function"
    }
  ],
  "bytecode": "0x6080604052600a805460ff19168155600b819055600c55611f40600d553480156200002957600080fd5b50604080518082018252600581526409c8ca8d2f60db1b60208083019182528351808501909452600484526309c8ca8b60e31b9084015281519192916200007391600091620001c2565b50805162000089906001906020840190620001c2565b505050620000a6620000a0620000ef60201b60201c565b620000f3565b620000bd60086200014560201b62000ee81760201c565b620000e9620000d860086200014e60201b62000ef11760201c565b6200015260201b62000ef51760201c565b620002a5565b3390565b600780546001600160a01b038381166001600160a01b0319831681179093556040519116919082907f8be0079c531659141344cd1fd0a4f28419497f9722a3daafe3b4186f6b6457e090600090a35050565b80546001019055565b5490565b6200019e816040516024016200016a91815260200190565b60408051601f198184030181529190526020810180516001600160e01b0390811663f5b1bba960e01b17909152620001a116565b50565b80516a636f6e736f6c652e6c6f67602083016000808483855afa5050505050565b828054620001d09062000268565b90600052602060002090601f016020900481019282620001f457600085556200023f565b82601f106200020f57805160ff19168380011785556200023f565b828001600101855582156200023f579182015b828111156200023f57825182559160200191906001019062000222565b506200024d92915062000251565b5090565b5b808211156200024d576000815560010162000252565b600181811c908216806200027d57607f821691505b602082108114156200029f57634e487b7160e01b600052602260045260246000fd5b50919050565b61236080620002b56000396000f3fe6080604052600436106101c25760003560e01c8063715018a6116100f7578063b88d4fde11610095578063e985e9c511610064578063e985e9c5146104df578063eb8d244414610528578063ee55efee14610542578063f2fde38b1461055757600080fd5b8063b88d4fde14610469578063c87b56dd14610489578063d9a59e33146104a9578063dd11247e146104c957600080fd5b806382ac0bb8116100d157806382ac0bb8146103f65780638da5cb5b1461041657806395d89b4114610434578063a22cb4651461044957600080fd5b8063715018a61461039457806380f2abe3146103a957806382543093146103e157600080fd5b806323b872dd11610164578063508d709f1161013e578063508d709f146103295780636352211e1461033e5780636817c76c1461035e57806370a082311461037457600080fd5b806323b872dd146102c55780633cfa7e01146102e557806342842e0e1461030957600080fd5b8063095ea7b3116101a0578063095ea7b3146102565780631249c58b14610278578063167ff46f146102805780631acc9b621461029557600080fd5b806301ffc9a7146101c757806306fdde03146101fc578063081812fc1461021e575b600080fd5b3480156101d357600080fd5b506101e76101e2366004611cf5565b610577565b60405190151581526020015b60405180910390f35b34801561020857600080fd5b506102116105c9565b6040516101f391906120af565b34801561022a57600080fd5b5061023e610239366004611d2d565b61065b565b6040516001600160a01b0390911681526020016101f3565b34801561026257600080fd5b50610276610271366004611ccc565b6106e8565b005b6102766107fe565b34801561028c57600080fd5b506102766109b1565b3480156102a157600080fd5b506101e76102b0366004611b36565b600f6020526000908152604090205460ff1681565b3480156102d157600080fd5b506102766102e0366004611b82565b6109ea565b3480156102f157600080fd5b506102fb600c5481565b6040519081526020016101f3565b34801561031557600080fd5b50610276610324366004611b82565b610a1b565b34801561033557600080fd5b50600c546102fb565b34801561034a57600080fd5b5061023e610359366004611d2d565b610a36565b34801561036a57600080fd5b506102fb600d5481565b34801561038057600080fd5b506102fb61038f366004611b36565b610aad565b3480156103a057600080fd5b50610276610b34565b3480156103b557600080fd5b506101e76103c4366004611b36565b6001600160a01b03166000908152600e6020526040902054151590565b3480156103ed57600080fd5b50600b546102fb565b34801561040257600080fd5b506102fb610411366004611ccc565b610b6a565b34801561042257600080fd5b506007546001600160a01b031661023e565b34801561044057600080fd5b50610211610b9b565b34801561045557600080fd5b50610276610464366004611c92565b610baa565b34801561047557600080fd5b50610276610484366004611bbd565b610bb9565b34801561049557600080fd5b506102116104a4366004611d2d565b610bf1565b3480156104b557600080fd5b506102766104c4366004611b36565b610d68565b3480156104d557600080fd5b506102fb600b5481565b3480156104eb57600080fd5b506101e76104fa366004611b50565b6001600160a01b03918216600090815260056020908152604080832093909416825291909152205460ff1690565b34801561053457600080fd5b50600a546101e79060ff1681565b34801561054e57600080fd5b50610276610e17565b34801561056357600080fd5b50610276610572366004611b36565b610e4d565b60006001600160e01b031982166380ac58cd60e01b14806105a857506001600160e01b03198216635b5e139f60e01b145b806105c357506301ffc9a760e01b6001600160e01b03198316145b92915050565b6060600080546105d890612228565b80601f016020809104026020016040519081016040528092919081815260200182805461060490612228565b80156106515780601f1061062657610100808354040283529160200191610651565b820191906000526020600020905b81548152906001019060200180831161063457829003601f168201915b5050505050905090565b600061066682610f3a565b6106cc5760405162461bcd60e51b815260206004820152602c60248201527f4552433732313a20617070726f76656420717565727920666f72206e6f6e657860448201526b34b9ba32b73a103a37b5b2b760a11b60648201526084015b60405180910390fd5b506000908152600460205260409020546001600160a01b031690565b60006106f382610a36565b9050806001600160a01b0316836001600160a01b031614156107615760405162461bcd60e51b815260206004820152602160248201527f4552433732313a20617070726f76616c20746f2063757272656e74206f776e656044820152603960f91b60648201526084016106c3565b336001600160a01b038216148061077d575061077d81336104fa565b6107ef5760405162461bcd60e51b815260206004820152603860248201527f4552433732313a20617070726f76652063616c6c6572206973206e6f74206f7760448201527f6e6572206e6f7220617070726f76656420666f7220616c6c000000000000000060648201526084016106c3565b6107f98383610f57565b505050565b6000600c54116108465760405162461bcd60e51b81526020600482015260136024820152724e6f7420656e6f75677468207469636b65747360681b60448201526064016106c3565b600d5434101561088b5760405162461bcd60e51b815260206004820152601060248201526f139bdd08195b9bdd59dd1a081cd95b9d60821b60448201526064016106c3565b600a5460ff166108d25760405162461bcd60e51b81526020600482015260126024820152715469636b6574206973206e6f742073616c6560701b60448201526064016106c3565b600061090c6108e86108e360085490565b610fc5565b6040516020016108f89190611f4e565b6040516020818303038152906040526110df565b90506000816040516020016109219190611de6565b604051602081830303815290604052905061093b81611253565b61094d3361094860085490565b611296565b61095f61095960085490565b826112b0565b336000908152600e6020526040902060085481546001810183556000928352602090922090910155610995600880546001019055565b6001600c60008282546109a891906121e5565b90915550505050565b6007546001600160a01b031633146109db5760405162461bcd60e51b81526004016106c390612114565b600a805460ff19166001179055565b6109f4338261133b565b610a105760405162461bcd60e51b81526004016106c390612149565b6107f9838383611421565b6107f983838360405180602001604052806000815250610bb9565b6000818152600260205260408120546001600160a01b0316806105c35760405162461bcd60e51b815260206004820152602960248201527f4552433732313a206f776e657220717565727920666f72206e6f6e657869737460448201526832b73a103a37b5b2b760b91b60648201526084016106c3565b60006001600160a01b038216610b185760405162461bcd60e51b815260206004820152602a60248201527f4552433732313a2062616c616e636520717565727920666f7220746865207a65604482015269726f206164647265737360b01b60648201526084016106c3565b506001600160a01b031660009081526003602052604090205490565b6007546001600160a01b03163314610b5e5760405162461bcd60e51b81526004016106c390612114565b610b6860006115c1565b565b600e6020528160005260406000208181548110610b8657600080fd5b90600052602060002001600091509150505481565b6060600180546105d890612228565b610bb5338383611613565b5050565b610bc3338361133b565b610bdf5760405162461bcd60e51b81526004016106c390612149565b610beb848484846116e2565b50505050565b6060610bfc82610f3a565b610c625760405162461bcd60e51b815260206004820152603160248201527f45524337323155524953746f726167653a2055524920717565727920666f72206044820152703737b732bc34b9ba32b73a103a37b5b2b760791b60648201526084016106c3565b60008281526006602052604081208054610c7b90612228565b80601f0160208091040260200160405190810160405280929190818152602001828054610ca790612228565b8015610cf45780601f10610cc957610100808354040283529160200191610cf4565b820191906000526020600020905b815481529060010190602001808311610cd757829003601f168201915b505050505090506000610d1260408051602081019091526000815290565b9050805160001415610d25575092915050565b815115610d57578082604051602001610d3f929190611db7565b60405160208183030381529060405292505050919050565b610d6084611715565b949350505050565b6001600160a01b0381166000908152600f60209081526040808320805460ff19166001179055600e909152812080548290610db357634e487b7160e01b600052603260045260246000fd5b906000526020600020015490506000610dde610dce83610fc5565b6040516020016108f89190611e2b565b9050600081604051602001610df39190611de6565b6040516020818303038152906040529050610e0d81611253565b610beb83826112b0565b6007546001600160a01b03163314610e415760405162461bcd60e51b81526004016106c390612114565b600a805460ff19169055565b6007546001600160a01b03163314610e775760405162461bcd60e51b81526004016106c390612114565b6001600160a01b038116610edc5760405162461bcd60e51b815260206004820152602660248201527f4f776e61626c653a206e6577206f776e657220697320746865207a65726f206160448201526564647265737360d01b60648201526084016106c3565b610ee5816115c1565b50565b80546001019055565b5490565b610ee581604051602401610f0b91815260200190565b60408051601f198184030181529190526020810180516001600160e01b031663f5b1bba960e01b1790526117ed565b6000908152600260205260409020546001600160a01b0316151590565b600081815260046020526040902080546001600160a01b0319166001600160a01b0384169081179091558190610f8c82610a36565b6001600160a01b03167f8c5be1e5ebec7d5bd14f71427d1e84f3dd0314c0f7b2291e5b200ac8c7c3b92560405160405180910390a45050565b606081610fe95750506040805180820190915260018152600360fc1b602082015290565b8160005b81156110135780610ffd81612263565b915061100c9050600a836121b2565b9150610fed565b60008167ffffffffffffffff81111561103c57634e487b7160e01b600052604160045260246000fd5b6040519080825280601f01601f191660200182016040528015611066576020820181803683370190505b5090505b8415610d605761107b6001836121e5565b9150611088600a8661227e565b61109390603061219a565b60f81b8183815181106110b657634e487b7160e01b600052603260045260246000fd5b60200101906001600160f81b031916908160001a9053506110d8600a866121b2565b945061106a565b8051606090806110ff575050604080516020810190915260008152919050565b6000600361110e83600261219a565b61111891906121b2565b6111239060046121c6565b9050600061113282602061219a565b67ffffffffffffffff81111561115857634e487b7160e01b600052604160045260246000fd5b6040519080825280601f01601f191660200182016040528015611182576020820181803683370190505b50905060006040518060600160405280604081526020016122eb604091399050600181016020830160005b8681101561120e576003818a01810151603f601282901c8116860151600c83901c8216870151600684901c831688015192909316870151600891821b60ff94851601821b92841692909201901b91160160e01b8352600490920191016111ad565b506003860660018114611228576002811461123957611245565b613d3d60f01b600119830152611245565b603d60f81b6000198301525b505050918152949350505050565b610ee58160405160240161126791906120af565b60408051601f198184030181529190526020810180516001600160e01b031663104c13eb60e21b1790526117ed565b610bb582826040518060200160405280600081525061180e565b6112b982610f3a565b61131c5760405162461bcd60e51b815260206004820152602e60248201527f45524337323155524953746f726167653a2055524920736574206f66206e6f6e60448201526d32bc34b9ba32b73a103a37b5b2b760911b60648201526084016106c3565b600082815260066020908152604090912082516107f992840190611a81565b600061134682610f3a565b6113a75760405162461bcd60e51b815260206004820152602c60248201527f4552433732313a206f70657261746f7220717565727920666f72206e6f6e657860448201526b34b9ba32b73a103a37b5b2b760a11b60648201526084016106c3565b60006113b283610a36565b9050806001600160a01b0316846001600160a01b031614806113ed5750836001600160a01b03166113e28461065b565b6001600160a01b0316145b80610d6057506001600160a01b0380821660009081526005602090815260408083209388168352929052205460ff16610d60565b826001600160a01b031661143482610a36565b6001600160a01b03161461149c5760405162461bcd60e51b815260206004820152602960248201527f4552433732313a207472616e73666572206f6620746f6b656e2074686174206960448201526839903737ba1037bbb760b91b60648201526084016106c3565b6001600160a01b0382166114fe5760405162461bcd60e51b8152602060048201526024808201527f4552433732313a207472616e7366657220746f20746865207a65726f206164646044820152637265737360e01b60648201526084016106c3565b611509600082610f57565b6001600160a01b03831660009081526003602052604081208054600192906115329084906121e5565b90915550506001600160a01b038216600090815260036020526040812080546001929061156090849061219a565b909155505060008181526002602052604080822080546001600160a01b0319166001600160a01b0386811691821790925591518493918716917fddf252ad1be2c89b69c2b068fc378daa952ba7f163c4a11628f55a4df523b3ef91a4505050565b600780546001600160a01b038381166001600160a01b0319831681179093556040519116919082907f8be0079c531659141344cd1fd0a4f28419497f9722a3daafe3b4186f6b6457e090600090a35050565b816001600160a01b0316836001600160a01b031614156116755760405162461bcd60e51b815260206004820152601960248201527f4552433732313a20617070726f766520746f2063616c6c65720000000000000060448201526064016106c3565b6001600160a01b03838116600081815260056020908152604080832094871680845294825291829020805460ff191686151590811790915591519182527f17307eab39ab6107e8899845ad3d59bd9653f200f220920489ca2b5937696c31910160405180910390a3505050565b6116ed848484611421565b6116f984848484611841565b610beb5760405162461bcd60e51b81526004016106c3906120c2565b606061172082610f3a565b6117845760405162461bcd60e51b815260206004820152602f60248201527f4552433732314d657461646174613a2055524920717565727920666f72206e6f60448201526e3732bc34b9ba32b73a103a37b5b2b760891b60648201526084016106c3565b600061179b60408051602081019091526000815290565b905060008151116117bb57604051806020016040528060008152506117e6565b806117c584610fc5565b6040516020016117d6929190611db7565b6040516020818303038152906040525b9392505050565b80516a636f6e736f6c652e6c6f67602083016000808483855afa5050505050565b611818838361194e565b6118256000848484611841565b6107f95760405162461bcd60e51b81526004016106c3906120c2565b60006001600160a01b0384163b1561194357604051630a85bd0160e11b81526001600160a01b0385169063150b7a0290611885903390899088908890600401612072565b602060405180830381600087803b15801561189f57600080fd5b505af19250505080156118cf575060408051601f3d908101601f191682019092526118cc91810190611d11565b60015b611929573d8080156118fd576040519150601f19603f3d011682016040523d82523d6000602084013e611902565b606091505b5080516119215760405162461bcd60e51b81526004016106c3906120c2565b805181602001fd5b6001600160e01b031916630a85bd0160e11b149050610d60565b506001949350505050565b6001600160a01b0382166119a45760405162461bcd60e51b815260206004820181905260248201527f4552433732313a206d696e7420746f20746865207a65726f206164647265737360448201526064016106c3565b6119ad81610f3a565b156119fa5760405162461bcd60e51b815260206004820152601c60248201527f4552433732313a20746f6b656e20616c7265616479206d696e7465640000000060448201526064016106c3565b6001600160a01b0382166000908152600360205260408120805460019290611a2390849061219a565b909155505060008181526002602052604080822080546001600160a01b0319166001600160a01b03861690811790915590518392907fddf252ad1be2c89b69c2b068fc378daa952ba7f163c4a11628f55a4df523b3ef908290a45050565b828054611a8d90612228565b90600052602060002090601f016020900481019282611aaf5760008555611af5565b82601f10611ac857805160ff1916838001178555611af5565b82800160010185558215611af5579182015b82811115611af5578251825591602001919060010190611ada565b50611b01929150611b05565b5090565b5b80821115611b015760008155600101611b06565b80356001600160a01b0381168114611b3157600080fd5b919050565b600060208284031215611b47578081fd5b6117e682611b1a565b60008060408385031215611b62578081fd5b611b6b83611b1a565b9150611b7960208401611b1a565b90509250929050565b600080600060608486031215611b96578081fd5b611b9f84611b1a565b9250611bad60208501611b1a565b9150604084013590509250925092565b60008060008060808587031215611bd2578081fd5b611bdb85611b1a565b9350611be960208601611b1a565b925060408501359150606085013567ffffffffffffffff80821115611c0c578283fd5b818701915087601f830112611c1f578283fd5b813581811115611c3157611c316122be565b604051601f8201601f19908116603f01168101908382118183101715611c5957611c596122be565b816040528281528a6020848701011115611c71578586fd5b82602086016020830137918201602001949094529598949750929550505050565b60008060408385031215611ca4578182fd5b611cad83611b1a565b915060208301358015158114611cc1578182fd5b809150509250929050565b60008060408385031215611cde578182fd5b611ce783611b1a565b946020939093013593505050565b600060208284031215611d06578081fd5b81356117e6816122d4565b600060208284031215611d22578081fd5b81516117e6816122d4565b600060208284031215611d3e578081fd5b5035919050565b60008151808452611d5d8160208601602086016121fc565b601f01601f19169290920160200192915050565b7f222c20226465736372697074696f6e223a202241204e46542d706f77657265648152730103a34b1b5b2ba34b7339039bcb9ba32b69116160651b602082015260340190565b60008351611dc98184602088016121fc565b835190830190611ddd8183602088016121fc565b01949350505050565b7f646174613a6170706c69636174696f6e2f6a736f6e3b6261736536342c000000815260008251611e1e81601d8501602087016121fc565b91909101601d0192915050565b717b20226e616d65223a20224e46546978202360701b81528151600090611e598160128501602087016121fc565b611e67601282850101611d71565b7f22747261697473223a205b7b202274726169745f74797065223a20224368656381527f6b656420496e222c202276616c7565223a20227472756522207d2c207b20227460208201527f726169745f74797065223a2022507572636861736564222c202276616c75652260408201526c01d10113a393ab291103eae961609d1b60608201527f22696d616765223a2022697066733a2f2f516d574c6231517745544a676f7543606d8201527f4261796746746f4d4d7155456d43684a78674c63357853455248614837367122608d82015261207d60f01b60ad82015260af01949350505050565b717b20226e616d65223a20224e46546978202360701b81528151600090611f7c8160128501602087016121fc565b611f8a601282850101611d71565b7f22747261697473223a205b7b202274726169745f74797065223a20224368656381527f6b656420496e222c202276616c7565223a202266616c736522207d2c207b202260208201527f74726169745f74797065223a2022507572636861736564222c202276616c756560408201526d0111d10113a393ab291103eae96160951b60608201527f22696d616765223a2022697066733a2f2f516d5a574d73693446524155724178606e8201527f4661317977723865425465397a4c704c647468576a3943663370463947356a22608e82015261207d60f01b60ae82015260b001949350505050565b6001600160a01b03858116825284166020820152604081018390526080606082018190526000906120a590830184611d45565b9695505050505050565b6020815260006117e66020830184611d45565b60208082526032908201527f4552433732313a207472616e7366657220746f206e6f6e20455243373231526560408201527131b2b4bb32b91034b6b83632b6b2b73a32b960711b606082015260800190565b6020808252818101527f4f776e61626c653a2063616c6c6572206973206e6f7420746865206f776e6572604082015260600190565b60208082526031908201527f4552433732313a207472616e736665722063616c6c6572206973206e6f74206f6040820152701ddb995c881b9bdc88185c1c1c9bdd9959607a1b606082015260800190565b600082198211156121ad576121ad612292565b500190565b6000826121c1576121c16122a8565b500490565b60008160001904831182151516156121e0576121e0612292565b500290565b6000828210156121f7576121f7612292565b500390565b60005b838110156122175781810151838201526020016121ff565b83811115610beb5750506000910152565b600181811c9082168061223c57607f821691505b6020821081141561225d57634e487b7160e01b600052602260045260246000fd5b50919050565b600060001982141561227757612277612292565b5060010190565b60008261228d5761228d6122a8565b500690565b634e487b7160e01b600052601160045260246000fd5b634e487b7160e01b600052601260045260246000fd5b634e487b7160e01b600052604160045260246000fd5b6001600160e01b031981168114610ee557600080fdfe4142434445464748494a4b4c4d4e4f505152535455565758595a6162636465666768696a6b6c6d6e6f707172737475767778797a303132333435363738392b2fa2646970667358221220093242748cf5a8a296edafff782b898078aa4e325de768915a054a20405666c364736f6c63430008040033",
  "linkReferences": {},
  "deployedLinkReferences": {}
}